:020000020000FC
:100000000F931F9307E610E00093C4001093C50000
:1000100008E10093C10006E00093C2001F910F9118
:1000200020E02AB938E03AB907EC00937A0000E6FC
:1000300000937C0000917A00006400937A000091A4
:100040007A0006FDFCCF00917800109179002F9383
:100050008F939F932AE08EE39CE90197F1F72A950D
:10006000D1F700009F918F912F916091C00067FFA1
:1000700003C06091C60001C060E0613349F01436EE
:1000800020F04A9B02C03BB9F0CF40E04BB9D2CF41
:100090003BB96091C00067FF03C06091C60001C01A
:0800A00060E0603391F3F4CF3E
:00000001FF
